:02000000852950
:10000800FF00030E8301B7000A08B6008A017008D2
:10001800A2007108A1007208A0008C1EAB288C12E7
:1000280028217008BE0086138A283E08F43A031D6A
:100038001F280130AC003E08FE3A031D25280B306E
:10004800AC00AB283E082406031D2E280230AC0065
:10005800AA012F28AC01AB283E08A8000330AC0049
:10006800AB2824082807F100F2010318F20A00302F
:100078007206031D412871083E06031D4528861790
:100088002315AC01AB283E082406031D4E280C306E
:10009800AC004F28AC01AB283E08093C01300318DE
:1000A8000030F1002A303E02013003180030F00021
:1000B8007108F005031965283E08A9000D30AC0049
:1000C8006628AC01AB2824082907F100F2010318BF
:1000D800F20A00307206031D732871083E06031DDC
:1000E80078280E30AC007928AC01AB2806173E08FA
:1000F800643A031D8028A3143E086E3A031D86281F
:10010800A315A310AC01AB28AC01AB282C08003A0E
:10011800031919282C08013A031926282C08023A31
:10012800031930282C08033A031935282C080B3AF0
:10013800031947282C080C3A031950282C080D3AA3
:10014800031967282C080E3A03197A2888280C1CEA
:10015800C5280C100B308F00DC308E00861DBA28A5
:10016800AB0A2B08FA3C0318BA288611061EC328C6
:10017800AD0A2D08143C0318C328AD010612AA0ABB
:1001880023142208F0002108F1002008F2003608A4
:0C0198008A00370E8300FF0E7F0E090066
:0E01A4008312031339088A003808820008000D
:1001B200831603139818DF280000D92883123D08FC
:0401C2009900080098
:1001C60083160313981690308312980083168614AC
:1001D600061183128C1EF2281A08F000EC2808007B
:1001E600831203133A0883169B009C131C141A08E7
:0401F600F00008000D
:1001FA00831603139C1C03290000FD2883123A0866
:10020A0083169B0083123B0883169A009C131C15C5
:10021A000B08F0008B1355309D00AA309D009C14EA
:0E022A00F01B19298B131A298B171C110800C1
:10023800D2208A110A128000840AB80A0319B90A5E
:08024800F003031D1C2908004E
:10025000831203131A08F100981C3029181218167B
:060260007108F000080027
:10026600FF3083120313BC00BB0108303B020318A6
:1002760043293B082E3E84000008BC05BB0A3829EA
:100286000F303C05F3007308BC000608BA0038308E
:100296003A05F2007208BA007208F000F00D70100C
:1002A6007008BA007308F0047008BC007F30F005CF
:1002B6007008BC0024087007A5007F30A505061449
:1002C600F030BD00D9202408BD00D9203C08BD006F
:1002D600D9202508BD00D9200230FC00A630FD003B
:1002E600FD0B7329FC0B7329000000000230FC0093
:1002F600A630FD00FD0B7D29FC0B7D2900000000CA
:0403060006100800D5
:10030A00FF3083160313850022308600831286117C
:10031A000610061207309F00213090000C100B3097
:10032A008F00DC308E0083160C14C0308B008312D1
:10033A00061386134030831699001815E320831696
:10034A008C160C120B178B178115011481140115C9
:10035A008312AC012311A310A311A801A701013034
:10036A00BA00F3207008FE3A0319DA298312BA0197
:10037A000B30BB00FD208230FC00DD30FD00FD0BA0
:10038A00C429FC0BC4290000000001308312BA0002
:10039A00FE30BB00FD208230FC00DD30FD00FD0B8D
:1003AA00D429FC0BD429000000008312BA01F320DF
:1003BA0070088312A4000610861A282A86190F2AA2
:1003CA000518E9297214EA2972108518EE2903140E
:1003DA00EF2903107218F5290318F5297210F62966
:1003EA007214721C0F2A83120519FD297214FE2930
:1003FA0072108519022A0314032A03107218092A93
:10040A000318092A72100A2A7214721C0F2A8312FC
:10041A000616AD018312061A282A0518182A851805
:10042A00182A0310192A0314031C1D2A8615AB0166
:10043A00051D232A851D232A0314242A0310031CBD
:10044A00282A8615AB01231D312AA630FD00FD0B93
:10045A002C2A000023113321A31C3A2AA310A63008
:10046A00FD00FD0B362A00003321A31D512AA311DA
:10047A008B13240829060319502ABA012908BB003C
:10048A00FD208230FC00DD30FD00FD0B4A2AFC0B0A
:10049A004A2A000000008B178312281C562A861548
:1004AA00AB01A81C5A2A0616AD012A08053C0318F6
:1004BA00612A0530AA00A60A02302A020318672A0E
:1004CA00A60106132608053C03186E2AA601403029
:1004DA008606231C882A231027082E3E8400050836
:1004EA00800027082E3EF100710884000F300005B5
:1004FA00F0007108840070088000A70A2708073CEA
:0C050A000318882AA7016400DA298A2A55
:02400E006E2121
:00000001FF
