:04000000ACEF1EF053
:023E2600120088
:103D84001F1F1F1F1F1F1F001F0E041F0000000006
:103D94000000001F040E1F001F0E041F040E1F004E
:103DA4001F17171115111F001F1D1D1115111F00BD
:103DB4001F11111111111F001F1B1B1B1F1B1F00A3
:103DC400FA30D979336BEB3AFB7BBBE3CAC1F1CB55
:103DD4008BB320F0C2BAA1E19B81E0F2730104002D
:103DE40030313233343536373839416243636445D0
:103DF4004648694A4C4E6E6F50727555592D2E20A7
:013E040002BB
:023E05007B7DC3
:103E07003134372A32353830333639234142434447
:093E170068656E72697175650041
:053E2000616C657800F3
:020000040030CA
:0D000100220F0EFF0181FF0FC00FE00F4026
:0200000400F00A
:100000002020202000000000000000000000000070
:1000100000000000000000000000000000000000E0
:1000200000000001000200030004000500060007B4
:10003000000800090100010101020103010401059A
:100040000106010701080109020002010202020380
:100050000204020502060207020802090300030166
:100060000000000000000000000000000000000090
:100070000000000000000000000000000000000080
:100080000000000000000000000000000000000070
:100090000000000000000000000000000000000060
:1000A0000000000000000000000000000000000050
:1000B0000000000000000000000000000000000040
:1000C0000000000000000000000000000000000030
:1000D0000000000000000000000000000000000020
:1000E0000000000000000000000000000000000010
:1000F00000000000000000000000303030303030E0
:00000001FF

